:020000040001F9
:10F000003057002015F201001DF201001FF201002F
:10F0100021F2010023F2010025F2010000000000AE
:10F0200000000000000000000000000027F20100C6
:10F0300029F20100000000002BF201002DF2010076
:10F0400091FA01002FF2010061020200B1FE0100FD
:10F05000C1FE01002FF2010069F801000DFB010063
:10F060002FF201002FF201002FF201002FF2010018
:10F070002FF201002FF201002FF201002FF2010008
:10F080007D020200E9FA01002FF201002FF20100D7
:10F0900009FF01002FF201000DFF01002FF2010016
:10F0A0002FF201002FF201002FF201002FF20100D8
:10F0B0002FF201002FF2010000000000000000000C
:10F0C0002FF201002FF201002FF201002FF20100B8
:10F0D0002FF201002FF201002FF2010000000000CA
:10F0E0000000000000000000000000000000000020
:10F0F0000000000000000000000000000000000010
:10F1000000000000000000000000000000000000FF
:10F1100000000000000000000000000000000000EF
:10F1200000000000000000000000000000000000DF
:10F1300000000000000000000000000000000000CF
:10F1400000000000000000000000000000000000BF
:10F1500000000000000000000000000000000000AF
:10F16000000000000000000000000000000000009F
:10F17000000000000000000000000000000000008F
:10F18000000000000000000000000000000000007F
:10F19000000000000000000000000000000000006F
:10F1A000000000000000000000000000000000005F
:10F1B000000000000000000000000000000000004F
:10F1C000000000000000000000000000000000003F
:10F1D000000000000000000000000000000000002F
:10F1E000000000000000000000000000000000001F
:10F1F000000000000000000000000000000000000F
:10F20000DFF80CD000F0F2FA004800474134020069
:10F21000305700200648804706480047FEE7FEE7D3
:10F22000FEE7FEE7FEE7FEE7FEE7FEE7FEE7FEE7B6
:10F2300031FF010001F201002DE9F05F05460020D9
:10F2400092469B4688460646814640241BE0284657
:10F2500041464746224600F0F8F953465A46C01A3E
:10F26000914110D311461846224600F0DFF92D1ABD
:10F2700067EB01084F4622460120002100F0D6F935
:10F2800017EB00094E41201EA4F10104DFDC4846C3
:10F2900031462A464346BDE8F09F2DE9F04100245F
:10F2A000061B254671F1000605DA01240027D0EB84
:10F2B000070067EB0101161E73F1000605DA00274F
:10F2C000D2EB0702012567EB0303FFF7B5FF864684
:10F2D0000E4617469C46AC4204D00025D0EB050EE6
:10F2E00065EB010624B10020D2EB000760EB030CB4
:10F2F000704631463A466346BDE8F08140EA010374
:10F300009B0703D009E008C9121F08C0042AFAD2DB
:10F3100003E011F8013B00F8013B521EF9D270479F
:10F32000D2B201E000F8012B491EFBD27047002247
:10F33000F6E710B513460A4604461946FFF7F0FFF4
:10F34000204610BD421C10F8011B0029FBD1801A79
:10F35000704730B504460020034600E05B1C934232
:10F3600003D2E05CCD5C401BF8D030BD034611F801
:10F37000012B00F8012B002AF9D1184670472DE91E
:10F38000FE4F804681EA0300C00F0C46009021F03A
:10F39000004123F00045B8EB0200A94105D24046E8
:10F3A000214690461C460B46024623F0004010437F
:10F3B00047D0270DC7F30A00C3F30A510290401A41
:10F3C000019040286BDAC3F3130040F4801B0098CF
:10F3D000924620B10023D2EB030A63EB0B0B01989A
:10F3E0005946C0F14002504600F020F906460D464D
:10F3F00050465946019A00F038F910EB0800614177
:10F40000002487EA115284EAE7731A4340D0009A35
:10F4100062B3019A012A4FEA075215DC001B61EB27
:10F4200002014FF0004202EA0752CDE90042001CFF
:10F4300041F5801132462B4600F038F903B0BDE8A3
:10F44000F08F40462146F9E7001B61EB0201001CEA
:10F4500041F5801300185B412018A2F5001747EB17
:10F46000030140EAD570B6196D4111E06D084FEA0D
:10F47000360645EAC0754FEA0752001B61EB0201F0
:10F48000001C41F5801149084FEA30000019514134
:10F4900032462B4603B0BDE8F04F00F0F8B80098B4
:10F4A000012240000023D0EB020263EBE0730098DE
:10F4B00021464FEAE074B8EB000061EB0401E9E794
:10F4C00083F000435BE781F0004158E72DE9FE4FF0
:10F4D00081EA030404F0004421F0004100944FF05D
:10F4E000000B23F0004350EA01045ED052EA03040B
:10F4F0005BD0C3F30A54C1F30A552C44A4F2F3348D
:10F500000194A0FB0254C1F3130141F48011C3F331
:10F51000130343F4801301FB024400FB034E840AEF
:10F52000970A44EA815447EA8357A4FB0768029587
:10F530008D0A05FB07854FEA932C04FB0C54270525
:10F54000029D4FEA065847EA1637B5EB08056EEB01
:10F55000070C870E920E47EA811742EA8312A7FB37
:10F560000201B6EB0B0164EB00042B0D43EA0C33F4
:10F570005E1844EB1C50DA465146E7FB0201C5F326
:10F5800013044FEA0B3343EA14534FEA0432019C4D
:10F5900043EA0603A4F10C040294009CCDE900B4F4
:10F5A00000F084F803B0BDE8F08F00200146F9E7D1
:10F5B0000EB540F2334102910021CDE900110A4617
:10F5C0000B4600F073F803B000BDC1F30A5210B54A
:10F5D000C1F3130140F2FF3341F480119A4201DA82
:10F5E000002010BD40F233439A42A2F2334203DCC2
:10F5F000524200F02AF810BD904010BD30B5041EF4
:10F6000071F1000404DB4FF00044404264EB01015F
:10F61000141E73F1000405DB1C464FF000435242F8
:10F6200063EB04038B4208BF824230BD202A04DB17
:10F63000203A00FA02F1002070479140C2F1200305
:10F6400020FA03F3194390407047202A04DB203A44
:10F6500021FA02F00021704721FA02F3D040C2F1F2
:10F6600020029140084319467047202A06DBCB1739
:10F67000203A41FA02F043EAE07306E041FA02F36D
:10F68000D040C2F12002914008431946704710B59E
:10F69000141E73F1000408DA401C41F100019218B5
:10F6A0005B411A4301D120F0010010BD2DE9F04D5E
:10F6B00092469B4611B1B1FA81F202E0B0FA80F2B3
:10F6C00020329046FFF7B2FF04460F4640EA0A0098
:10F6D00041EA0B0153465A46084313D0114653EAF8
:10F6E000010019D0C8F140025046FFF7AEFF0546B1
:10F6F0000E46504659464246FFF798FF084305D04C
:10F70000012004E020463946BDE8F08D0020054385
:10F7100046EAE0762C4337430A986305E40AA0EBF7
:10F7200008000022FD0A44EA47540A3002D50020AE
:10F730000146E9E7010510196941DDE908450019AD
:10F740006941BDE8F04DA2E72DE9F04D00231A46CE
:10F750001B1A8A4103DB00200146BDE8F08DC1F38E
:10F760000A52C1F3130141F480154FF0000BD10789
:10F7700002D100186D41521E0027044640F2FF11CD
:10F78000384601EB620A3E468046024600204FF4AE
:10F790008011FFF75AFFC2197141BB1846EB0100F7
:10F7A000B4EB030C75EB000C04D3E41A65EB000515
:10F7B00017460E46241908F101006D418046342891
:10F7C000E3DDF91946EB0600091BA84103D24FF00F
:10F7D000FF32134601E0002213461BEB070046EB05
:10F7E0000A51BDE8F04DFFF752BF0000064C074D2F
:10F7F00006E0E06840F0010394E807009847103401
:10F80000AC42F6D3FFF700FD709502009095020020
:10F8100070B58C1810F8015B15F0070301D110F8D2
:10F82000013B2A1106D110F8012B03E010F8016BFF
:10F8300001F8016B5B1EF9D12B0705D40023521E82
:10F840000DD401F8013BFAE710F8013BCB1A921CEA
:10F8500003E013F8015B01F8015B521EF9D5A142E8
:10F86000D8D3002070BD00002DE9F04700268CB0F1
:10F87000DFF86091B0464FF4807501243746069654
:10F88000284606F09DF838B1D9F80403204203D089
:10F89000284606F08BF826432D1D64007F1CADB270
:10F8A000082FEDD34FF4BE74204606F089F848B116
:10F8B000204606F07BF846F0004606AA012100200B
:10F8C00006F060F8444D16F0FF0F15D00127002414
:10F8D00037420DD009EB8401D1F81005D1F810158D
:10F8E000C0F3042055F82420C1F3014102B1904730
:10F8F0007F00641C082CEBD3002E67DA4FF0FF303A
:10F90000CDE9088000263446281910F8507F90F978
:10F91000000027F0C008401C44D009A9404604F06C
:10F920000DFF58B34FEA9719404602F05BFF55F8B8
:10F9300020701FB1B9F1030F03D00FE0B9F1030F2D
:10F9400030D108A84FEAD80208F00703815C4FF0D5
:10F95000010C0CFA03FC41EA0C0181544FF0A04168
:10F9600001EB8800D0F8000706A9C0F3014A404621
:10F9700004F0E4FE18B1BAF1020F03D012E0BAF1BC
:10F98000030F0FD1B9F1030F08D1BAF1020F1BD049
:10F990000221404605F0AFFF761CF6B217B149468A
:10F9A0004046B847641C042CAED3002E0ED06A46E5
:10F9B0000121002005F0E6FF06990098884205D055
:10F9C0000690089809909DE70321E2E70CB0BDE896
:10F9D000F087000000600040182F002000F01F0298
:10F9E000012191404009800000F1E020C0F8801220
:10F9F000704700F01F02012191404009800000F192
:10FA0000E020C0F88011704700F01F0201219140F2
:10FA10004009800000F1E020C0F80011704700F0BC
:10FA20001F02012191404009800000F1E020C0F850
:10FA30000011704700F01F02012191404009800031
:10FA400000F1E020C0F8001270474907090E0028B5
:10FA500006DA00F00F0000F1E02080F8141D704776
:10FA600000F1E02080F8001470470000BFF34F8FD2
:10FA700005480168054A01F4E06111430160BFF3E4
:10FA80004F8F00BFFDE700000CED00E00400FA0519
:10FA90002DE9F0414FF48077384604F04FFF012400
:10FAA000104EA50748B1384604F04FFF0120C5F8B5
:10FAB00008037470002002F09DFE4FF482773846F0
:10FAC00004F03CFF00280BD0384604F03EFF022033
:10FAD000C5F80803B470BDE8F041012002F08ABE09
:10FAE000BDE8F081042F002007480021C0F8401134
:10FAF000C0F84411C0F84811C0F84C11C0F800110A
:10FB0000C0F8041107F076BE001001402DE9FE4355
:10FB10004FF48278404605F0A1FF4C4F00254C4C35
:10FB2000012600B3404605F0A1FF94F82E0010B165
:10FB300094F82F10D1B18DF800506168019121899E
:10FB4000ADF80810E26832B1218B618362602181D7
:10FB5000E56010B102E0257400E03E60216868466F
:10FB6000884784F82F5094F82E0060B34FF48077C4
:10FB7000384605F073FF30B3384605F077FF628BE7
:10FB800094F82D108A420AD9A2EB010080B260835A
:10FB90002289A2EB0000626802EB400005E007D179
:10FBA000E06828B184F82F60658305F011FF04E058
:10FBB0008A4202D184F82F606583404605F056FFE3
:10FBC0002248001D06604FF48877384605F046FF4E
:10FBD00048B1384605F04AFF257402208DF8000030
:10FBE0002168684688474FF48A77384605F036FF23
:10FBF00028B1384605F03AFF2574BDE8FE834FF082
:10FC000000484FF48C7967691DE000BFB7FA87F0B0
:10FC100028FA00F109EB80058F43284605F01EFF06
:10FC200088B1284605F022FFA5F58C75E8088DF807
:10FC3000040045F38000401C8DF800608DF805003D
:10FC4000216868468847002FE0D1D6E70070004061
:10FC5000702F00202DE9F04107460B4815460E464F
:10FC6000007808B900F024FBEFF31184202080F322
:10FC700011882A463146384600F008F8E1B281F38F
:10FC80001188BDE8F0810000A431002070B50E4657
:10FC9000144900EB400001EBC0051446E86A183532
:10FCA00020B101280FD0022805D113E0284600F02A
:10FCB00033FBA04201D2002411E0224631462846FF
:10FCC00000F050FC0BE0284600F026FBA042F4D2E6
:10FCD0000446F2E73146284600F017FC0446204669
:10FCE00070BD0000A431002070B505460C460846E2
:10FCF000FFF728FB024621462846BDE87040FFF783
:10FD0000A9BF0FB408B504A900916A46039900F091
:10FD100003F801B05DF814FB2DE9F04198B00646F8
:10FD200007A8029040200025CDE90305CDE905563E
:10FD300090460C4614F8011B002973D0252908D0E1
:10FD400002A800F0C3FB05980028F3DA18B0BDE85C
:10FD5000F081002001212278232A1ED02B2A19D0DD
:10FD60002D2A02D0302A08D102E040F0010001E043
:10FD700040F00200641C0029EDD100222178A1F19D
:10FD800030030A2B0CD202EB820201EB4202303A22
:10FD9000641CF3E740F00400ECE740F00800E9E7FA
:10FDA0000023CFB22E2F0BD114F8011FA1F1300781
:10FDB0000A2F05D203EB830301EB4303303BF3E748
:10FDC0006C290DD068290BD0702954D00BDC252963
:10FDD00016D0582931D063290CD0642913D114E0EE
:10FDE00014F8011FECE7732934D075291BD078294A
:10FDF00009D122E0D8F80000011DC8F800100178F0
:10FE000002A800F063FB641C9DE7D8F800100F1DEA
:10FE1000C8F800700968CDE900200A2202A800F0A5
:10FE200087FAF0E733E0D8F800100F1DC8F800702B
:10FE30000968CDE900200A2208E0D8F800100F1D5B
:10FE4000C8F800700968CDE90020102202A800F06F
:10FE5000D3FAD8E7D8F80000011DC8F800100768E9
:10FE600017F8011B0029CED002A800F02FFB05983F
:10FE70000028F5DAC7E7D8F80000011DC8F800101F
:10FE800001680820CDE9000503461022DEE7059849
:10FE900000287FF75BAF049820B1024607A93046DF
:10FEA000FFF7D8FEDDE90410084405904EE7000096
:10FEB0000149024803F0BCB9C42F002000300040C3
:10FEC000F8B54FF040200F4D04464FF48C7105F00B
:10FED000D7FD002815D00026C4F81861D4F8180101
:10FEE0000090A87F2C46FF2801D005F023FD6677FF
:10FEF0002672D4E9002101B004F10800BDE8F04009
:10FF00001047F8BDA02F002007F0C2BB074810B56E
:10FF1000406830B18047002807D0BDE8104000F0AD
:10FF200011BFBDE8104003F00BB910BD88270020B9
:10FF30002DE9F041BA480023021D0178101D01256A
:10FF40004FF0805406290BD11678360708D1067871
:10FF5000C6F30316032E06D0042E04D0052E02D0BD
:10FF6000062907D00EE0B4F82463AE4FC6F304268A
:10FF70003E6002E01678360704D10678C6F3031611
:10FF8000032E02D0062904D00FE0A84FA64E7E67AC
:10FF90000EE01678360708D10678C6F30316032E4E
:10FFA00006D0042E04D0052E02D0062907D00EE07C
:10FFB000D4F844629E4FC6F342363E6002E01678A3
:10FFC000360704D10678C6F30316032E02D006299D
:10FFD00006D011E0974E376827F0807737600EE043
:10FFE0001678360708D10678C6F30316032E06D016
:10FFF000042E04D0052E02D006290AD011E04FF0BD
:020000040002F8
:100000008046C6F80C31C6F81031894E361F336071
:1000100002E01678360704D10678C6F30316032EDD
:1000200002D0062905D00CE0814F032664373E60DC
:100030000AE01678360704D10678C6F30316032EB5
:1000400002D006290DD014E07B4F05263E607A4E83
:1000500078363560784E083633603F263F1D3E6067
:1000600002E01678360704D10678C6F30316052E8B
:1000700002D0062957D062E0704E3668704F3E605D
:100080006E4E361D36683F1D3E606C4E0836366833
:100090003F1D3E60694E0C3636683F1D3E60674E20
:1000A000103636683F1D3E60644E143636683F1D7C
:1000B0003E60624E18363668614F20373E605F4EB4
:1000C0001C3636683F1D3E605C4E203636683F1D4C
:1000D0003E605A4E243636683F1D3E60574E2836E5
:1000E00036683F1D3E60554E2C3636683F1D3E60DB
:1000F000524E30363668524F40373E604F4E34369F
:1001000036683F1D3E604D4E383636683F1D3E60B6
:100110004A4E3C3636683F1D3E60484E4036366893
:100120003F1D3E6002E01678360708D10678C6F318
:100130000316032E06D0042E04D0052E02D0062965
:1001400007D019E0D4F858123E4A01F04F0111606F
:1001500002E0117809070FD10078C0F303100328DB
:1001600003D0042801D0052806D137480168C90703
:1001700002D06FF001010160D4F83001062808D1E7
:10018000D4F83401062804D13048016841F4806174
:10019000016028487438016841F470010160BFF3C0
:1001A0004F8FBFF36F8F4FF01020D0F80C12284AFA
:1001B000CC07284911D015600C68002CFCD0D0F871
:1001C0000C4224F00104C0F80C4208680028FCD05E
:1001D000136008680028FCD01AE0D0F80042002C18
:1001E00003DBD0F80442002C14DA15600C68002CF4
:1001F000FCD01524C0F800420D68002DFCD0C0F8DA
:10020000044208680028FCD0136008680028FCD06D
:10021000FFF72CFC114910480860BDE8F081000090
:10022000E00F00F0403501400DF0ADBA00C00740CE
:100230003C050040FCED00E01056004004040010B6
:1002400020C50040E40E0040000400403C17004080
:1002500004E5014000E401400090D003B8270020ED
:100260000448017F04480029024901D008F0CDB8B4
:1002700008F03CB8EC2F002000200040094882B074
:10028000D0F804034FF0000110F0010F07D006482A
:100290000160006800900548406802B0004702B065
:1002A0007047000000000140000101402C270020A1
:1002B00010B5124C02202061606111A0A06104F110
:1002C0007800E0614FF4806020620020A0626062EC
:1002D0000BA1A164E06204F58F61E1641021A065C7
:1002E000C4E91410E06509A1E01DFFF73FF808A17B
:1002F0002046FFF73BF82020A07110BDA43100205C
:100300005465726D696E616C0000000052545400B7
:1003100053454747455200000269C1688A4203D8E5
:100320008068401A104400E0501A401E70470000D8
:100330002DE9FC5F0E008146DDE90C47C6F10000A7
:1003400098469346824600D40846012503E000BF44
:1003500090FBFBF06D1C5845FADAA84500D94546DC
:1003600024B1002E01DB780700D5641EB80702D542
:10037000B8F1000F0FD0F8070DD164B1A5420AD231
:1003800020214846641E00F0A1F8D9F80C0000288E
:10039000F3DABDE8FC9FD9F80C000028F9DB002E49
:1003A00002DA56462D2102E0780707D52B21484670
:1003B00000F08CF8D9F80C000028EADB07F0030005
:1003C00002280FD1B8F1000F0CD15CB1A54209D2BF
:1003D00030214846641E00F079F8D9F80C00002856
:1003E000F3DAD6E7CDE9004743465A463146484658
:1003F00000F002F8CDE700002DE9F84F8246DDE974
:100400000A4B0126984691460D460846374602E0BB
:10041000B0FBF9F07F1C4845FAD2B84500D94746F1
:100420005FEACB7017D1B4B15FEA8B7002D5B8F137
:10043000000F02D0202000900BE03020FBE7504658
:10044000641E009900F042F8DAF80C00002838DB4E
:100450000CB1A742F3D3DAF80C00002831DB00BF5F
:10046000B8F1010F02D9A8F1010803E0B5FBF6F0DD
:10047000484502D306FB09F6F2E7DFF84C8000BFDF
:10048000B5FBF6F000FB165518F80010504600F0CA
:100490001DF8DAF80C00002803DBB6FBF9F6002E95
:1004A000EED15FEACB700CD0002C0AD0A74208D264
:1004B00020215046641E00F009F8DAF80C000028EC
:1004C000F2DABDE8F88F00005895020010B5044636
:1004D000D4E90130421C934205D323681954A26029
:1004E000E068401CE060D4E90102824209D1216841
:1004F0002069FFF7AFFBA168884203D04FF0FF30BF
:10050000E06010BD0020A06010BD2DE9F047C46878
:100510001746894606464FF000083069A04201D9C7
:10052000051B02E0B168201A0D1AB0686D1E001B91
:10053000A84200D80546BD4200D33D4670682A4611
:1005400020444946FEF7DAFEB0687F1B2C44A844DD
:10055000A944A04200D10024F460002FDDD1404620
:10056000BDE8F0872DE9F04104468846D4E902074A
:10057000C51BE168606816460844B54206D9414685
:10058000FEF7BCFEB819E060BDE8F0812A4641469E
:10059000FEF7B4FE761B08EB050132466068FEF7F5
:1005A000ADFEE660F0E700B52DED048BB0EE409AAD
:1005B000F0EE609A83B051EC190BFFF7C5F841ECEF
:1005C000180B18EE100A18EE901A8DED008B00280B
:1005D00018BF0120084320F00040C0F17F6000F107
:1005E000E040C00F14D019EE101A19EE900A8DEDEC
:1005F000009B002918BF0121084320F00040C0F1F2
:100600007F6000F1E040C00F04BF012000F02AF835
:10061000B0EE480A03B0F0EE680ABDEC048B00BDF2
:1006200002E008C8121F08C1002AFAD170477047BB
:10063000002001E001C1121F002AFBD17047000019
:100640000121202803DA81400548014003E04028C9
:1006500002DA2038814009B101207047002070473C
:10066000FC06FFBD0149086070470000BC27002060
:100670002DE9F043054662488DB00E4640680024DF
:100680002746007803230BAA0D2107F085F918B13E
:1006900007200DB0BDE8F08300200BAB0DF1100C6E
:1006A000DFED580A564930391A5CD2B1DFF858816B
:1006B00008EB420232F8022C00EE102A0CEB80020A
:1006C000B8EE400A82ED000A20EE200A82ED000A10
:1006D00091ED041AB8EE411AC0EE011AC2ED001AEB
:1006E00006E09FED4A0A0CEB8002012782ED000A2A
:1006F000401C0328D8DB01AB01224FB391ED080A5F
:100700005FF0000020EE201A91ED090A60EE201A39
:1007100056F8207055F820C0A7EB0C0700EE107AB1
:1007200003EB8007B8EEC00A87ED000AB4EEC10AF9
:10073000F1EE10FA04D3B4EEE10AF1EE10FA02DDA4
:1007400002FA00F73C43401C0328E1DBACB34FE066
:1007500091ED0A1A0020F7EE001A0DF1200900BFF2
:1007600056F8207055F82080A7EB080700EE107AA5
:1007700003EB8007B8EEC00A87ED000A0CEB800798
:10078000D7ED002A09EB800780EE222A32EE610ABB
:1007900087ED000AB5EEC00AF1EE10FA01DCB1EE09
:1007A000400AB4EEC10AF1EE10FA02DD02FA00F7D7
:1007B0003C43401C0328D3DBC8E7FFE791ED0B0A5D
:1007C0005FF0000020EE200A55F82010002900DC20
:1007D000494200EE901AF8EEE00AF4EEC00AF1EE9B
:1007E00010FA02DD02FA00F10C43401C0328EBDB97
:1007F000224607A10020FFF784FA204649E70000BF
:10080000B826002000008047C086020000000000DB
:1008100041434320726573756C743D25780D0A0061
:100820002DE9FC47002517880646158090F82D0015
:100830001446894630B13A462146484601F05AF9F5
:10084000050009D1B0784FF00C0A18B32088C846CB
:10085000001DB84202D95046BDE8FC87684679DFE2
:100860000028F9D12088032108F8001020881921D8
:10087000401C80B2208008F800102088401C80B204
:10088000208000EB0801BDF8000007F036FE21884B
:1008900008442080F0780222C8B1218896F90330FC
:1008A00001F1030C4846BC45D5D8425421884FF08D
:1008B000010C491C89B2218000F801C02188491C23
:1008C00089B2218009F801302088401C208070689E
:1008D000B8B1218890F9003001F1030C4846BC45BD
:1008E000B9D8425421880A22491C89B22180425435
:1008F0002188491C89B2218009F801302088401CD8
:100900002080308950B1CDE900474B4606220221B4
:1009100006F1080007F03EFE05009DD1308A50B177
:10092000CDE900474B460722032106F1100007F0EE
:1009300031FE050090D1308B50B1CDE900474B46D8
:100940001522142106F1180007F024FE050083D1BA
:10095000306A30B13B462246494601F0B5FF0500FA
:10096000DBD1706A30B13B462246494602F0F8FDC1
:100970000500D2D196F82C0038B13B4622464946B4
:10098000304606F0E3FB0500C7D1307838B13B466E
:1009900022464946304603F083FE0500BDD1284675
:1009A0005AE70000134A0021535C0BB1012203E017
:1009B000491C0629F8D300220F49012806D0022835
:1009C00009D003280CD0042812D10DE0487810B1CA
:1009D0000AB101207047887810B10AB1022070472F
:1009E000C87808B103207047087908B1042070471F
:1009F0000020704711270020542D002000B59BB027
:100A00005920ADF8600015481A900920ADF864002F
:100A10003C2101A8FEF78BFC02208DF80400062083
:100A20008DF8070018A80A90202110A8FEF77FFC77
:100A300001208DF843000A480A4B10AA418C1491FA
:100A4000808C159000200146009001A800F034FD34
:100A5000002801D000F076F91BB000BD6F2A0020FD
:100A600030260020D95A020010B5032000F0C8FD3E
:100A7000002803D0BDE8104000F064B910BD30B5C7
:100A80008FB004461C216846FEF751FC00259DF8F6
:100A90000000019540F00A008DF8000003950495D0
:100AA0000595069520788DF8360041F20170ADF875
:100AB000340007959DF81C00142120F00F00401C05
:100AC00020F0F00010308DF81C009DF81D0020F083
:100AD0000F00401C20F0F00010308DF81D009DF834
:100AE0001E0020F00600801C20F0100040F00900DD
:100AF0008DF81E0008A8FEF71AFC0DA8089007A89C
:100B000009900220ADF82850ADF82A50ADF82C001D
:100B10006088231D08AA6946A2DF41F20270ADF881
:100B20003400608804F10C0308AA6946A2DF9DF82E
:100B3000000004F1140320F008008DF800009DF877
:100B40001D0008AA20F0FF008DF81D0041F203707F
:100B5000ADF8340060886946A2DF9DF8000004F11A
:100B60001C0340F008008DF800009DF81D0008AA45
:100B700020F00F00401C20F0F00010308DF81D0018
:100B800041F20470ADF8340060886946A2DF41F29A
:100B90000570ADF83400608804F1240308AA6946A2
:100BA000A2DF0FB0002030BD0748084A418D491C24
:100BB00089B241851288914204D3002141850449BC
:100BC0000120487170470000302600208626002052
:100BD000542A0020064810B500222121806800F028
:100BE00023F9002803D0BDE8104000F0ABB810BDD9
:100BF00064860200054810B5806800F059F90028A5
:100C000003D0BDE8104000F09DB810BD648602001E
:100C10000149012008717047542A00200D4810B581
:100C2000807D70B10C48807948B1012802D019202C
:100C300004F08EFE1A20BDE8104004F089BE192091
:100C4000F9E7192004F068FEBDE810401A2004F00E
:100C500063BE0000542A00203026002070B5002416
:100C6000084D05E0686810F8340004F0BDF8641C15
:100C700028788442F6D304480068BDE8704000F04C
:100C800017B90000502700203095020070B50024ED
:100C9000064D06E06868012110F8340004F0C8F839
:100CA000641C28788442F5D3002070BD50270020B2
:100CB000F8B515460C460646052A01D20720F8BDB0
:100CC00004F09CF918B904F06BF90028F7D1104929
:100CD00000204E600C70C1E902500E4D08610DE01D
:100CE00006EBC4006968009181788DF801100078E6
:100CF000094A694604F0EEF80028E0D1641EE4B227
:100D0000EED2BDE8F840054A0021024800F04EB896
:100D10005027002030950200212F0200E92902000F
:100D2000BFF34F8F05480168054A01F4E0611143A4
:100D30000160BFF34F8F00BFFDE700000CED00E046
:100D40000400FA050EB500210091CDE901106A46B4
:100D500044F20100FFF7E4FF0EBD10B58268C368DE
:100D6000934203D001F0C4FE002010BD052010BD49
:100D700029B112B1531E134203D0092070470E202F
:100D800070470160838000218160C1600846704720
:100D900010B58268C3689A1A83889A4203D801F012
:100DA000B1FE002010BD042010BD0000084B9B7850
:100DB00023B12AB120B10068037C1BB10820704721
:100DC000072070470023037441744261184670473E
:100DD0006C30002070B505F09BFF104800240B21FB
:100DE000047044700E4D817014206C602C706C7017
:100DF000FEF7F4FD07211420FEF727FE1420FEF76E
:100E000003FE0848046007211120FEF71EFE054876
:100E1000001F0068A860002070BD00006C3000203A
:100E200064270020081501402DE9FC47DFF8789081
:100E300099F8023073B368B3052902D20720BDE8E0
:100E4000FC87436933B3437C012B25D0002704463C
:100E50000025884616468DF80050684600F0DEF8FA
:100E600001A807F07FFBC8B1012101700F49446060
:100E70000968C0E90218C0E904769DF8040089F801
:100E800001009DF8000000F0EDF81420FEF7D2FDFF
:100E90002846D4E70820D2E70F46D8E704259DF876
:100EA000000000F0DFF8F3E76C300020041501408B
:100EB0000649897839B130B1416921B10021017405
:100EC000022106F073BC0820704700006C3000203F
:100ED00070B50A4E01460A48B578FFF73EFF044652
:100EE0004DB10020B070711C0122C81D04F0F6FA4B
:100EF00008B1FFF727FF204670BD000078270020CB
:100F000084310020F0B5284E89B01F460D000446FC
:100F100072603BD0A888296882B22448FFF728FF76
:100F2000002834D1A889A96882B220481030FFF780
:100F30001FFF00282BD120221D496846FEF7DEF94D
:100F400060690690207C00B101208DF814008DF8B6
:100F50001C70607C00B10E208DF81500E0680290D6
:100F6000A068039020680190606800900E48114AC4
:100F70006946083004F07EFA002808D1B070206875
:100F8000401C04D09DF81D0018B106E0072009B0F0
:100F9000F0BD0548083004F0F9FA03490122491C64
:100FA000C81D04F09BFAF2E7782700208431002066
:100FB000389502004D82020010B501460B48FFF73C
:100FC000E7FE040010D10A4804F02AFC60B9084981
:100FD00006480839FFF7C1FE30B905490122083932
:100FE000034804F097FB0446204610BD94310020CE
:100FF0008027002070B506460024074D09E0285DD3
:10100000FFF7DAFF18B11128F9D0FFF79BFE641C37
:10101000E4B2B442F3D370BD2C36002030B5EFF308
:10102000108172B60D4A9468012324B1037000291F
:1010300000D162B630BD93604FF0E023D3F8805109
:10104000074C25401560C3F88041D3F884415460B3
:101050005A17C3F8842100220270E8E77831002093
:10106000FC06FFBD0B498A68002A11D000280FD169
:10107000EFF3108072B60B684FF0E022C2F8003137
:101080004B68C2F8043100228A60002800D162B6A1
:101090007047000078310020074810B500224FF457
:1010A00000414068FFF7C0FE002803D0BDE81040B3
:1010B000FFF748BE10BD0000648602002DE9F04134
:1010C000064608680C46411C4FF0A0474FF001054A
:1010D00006D005FA00F1C7F80815206804F001FCF5
:1010E0006068411C02D0002104F0F2FB30792049F5
:1010F00001EB4010A169007F00283068C0F824157A
:1011000025D0607D227D31681043C1F86C05D4E99B
:1011100000123068C0F80C15C0F8142524E0A0684F
:10112000411C02D0002104F0D3FBE068411C05D033
:101130008540C7F80855E06804F0D3FBD4E90212F3
:101140003068C0F80825C0F81015BDE8F081607D52
:10115000217D32680843C2F86C05D4E9001230687A
:10116000C0F81425C0F80C15207D0128D7D0ECE775
:10117000EC2F00202DE9F0430546007D93B00E468C
:101180000024A0B107949DF81C0020F00F00401C23
:1011900020F0F00010308DF81C00707B8DF81D00E1
:1011A0009DF81E0020F00600801C8DF81E001C21FA
:1011B0006846FEF7BCF89DF8000040F002008DF88C
:1011C0000000297D11B140F0100001E020F0100076
:1011D0008DF80000019403940494287D00B107A8C1
:1011E000CDE9050401278DF8427042F61920ADF8CB
:1011F00040000D94B07B8DF83400F07B8DF8350005
:101200009DF83600142120F00600801C20F0190003
:101210008DF83600307B8DF8440008A8FEF787F87B
:101220000DF140080DF13409ADF8287011A8CDE991
:101230000889ADF82A40ADF82C700C90A888AB1D39
:1012400008AA6946A2DF002838D1B06898B38DF8A3
:10125000427042F60810ADF840000D94307C8DF8D5
:1012600034009DF8350020F0FF008DF835009DF822
:10127000360020F00600801C20F019008DF83600A2
:101280000EA8B16800F0F8FD0646142108A8FEF784
:101290004EF8ADF828600EA8CDE90889ADF82A40CF
:1012A000ADF82C600C90E88805F10E0208A9A3DFC8
:1012B000002803D101E0FFE7EC81002013B0BDE876
:1012C000F08300002DE9F0475A49B1F90020642A63
:1012D00070DBA1F13C040846E38900889A4200DDF6
:1012E000E081628A02B9608289462082E1894FF4F6
:1012F0001477B94200D939464F4D2A7B32B1628A00
:10130000A1F5D77189B2904206D307E0628AA1F2B3
:10131000BD1189B2904201D9228200E06082228A06
:10132000B2F5F07F01D2143189B2B2F5D77F03D97B
:10133000A2F5D77080B200E0002064235843B0FBD0
:10134000F1F0C0B26073642801D964206073687CD6
:1013500078B13AA10020FEF7D4FC627B39A10020CD
:10136000FEF7CFFC3948007818B13348E03000F080
:1013700097FC287B4FF001080026A0B3687B90BB48
:10138000B9F90010628B914203D1208B401C20835D
:1013900009E0218BA38A994201D9A182E2822683A6
:1013A000B9F800006083218AE08C814203D9E1848E
:1013B000268518E03CE0218D491C8AB22285B8427E
:1013C00001D33C2101E04FF496718A420BD90221EE
:1013D000E17085F80D80E081687A20B9E87A10B96B
:1013E000042000F035FFA87B0028607B06D0192878
:1013F00017D9AE73002000F02BFF12E00F2810D891
:101400006E7385F80E80052000F022FF687A10B117
:101410006E7274DF05E0E87A18B11321A08B76DFD5
:10142000EE72617BBDE8F0470348603000F099B987
:10143000BDE8F0876C260020542A00202564202077
:101440000000000025640D0A00000000B327002002
:10145000F0B50C4695B024210726ADF80010ADF884
:101460000410002750B1C17849070DD56A4602A97A
:10147000FFF7D6F9002808D102AD02E00025ADF84B
:1014800000706CB1E07810B1304615B0F0BD01AA23
:101490000BA92046FFF7C4F90028F6D10BAA02E0F9
:1014A0000022ADF80470BDF80400C3B2BDF800001E
:1014B000C1B2284672DFE8E72DE9F0479846DDF82B
:1014C000209013468A46040043D0EBB3404D0126DA
:1014D00000272E70AF70202219463E48FDF70EFF00
:1014E000EE704FF6FF70C5E904892881AF61394875
:1014F000AF83AF773C212030FDF719FF35482178C5
:1015000020300170A1788170E178C17061784170FC
:101510003049D4E90423C1E90C23D4E90223C1E909
:101520000A23D4E90623C1E90E23616AE1B100F17F
:101530003C0100F1480241628A60636A1B880B80AB
:10154000616A436A898800E003E099800021436A68
:1015500007E00E20BDE8F087656AAD686D5C555404
:10156000491C9D888D42F7D8A16AD9B1194A983291
:10157000A2F10C018A608162A36A9B888B80A16AB8
:10158000836A098819800021836A04E0A56AAD682E
:101590006D5C5554491C9D888D42F7D894F82C10E9
:1015A00080F82C10216A49B109490A310162226A86
:1015B00052884A80216A026A09881180616801B1F3
:1015C00041605146BDE8F04702482030FFF740BF78
:1015D000F8260020542D002002880849102A06D041
:1015E000112A09D1002048714FF6FF7003E0C27B39
:1015F000012A01D18088088170470000F826002068
:101600002DE9FF41394C8046207898B184F802805A
:101610000025A561364EA583A57771784046012740
:1016200009B101280AD0B17879B1012806D0022881
:1016300004D00AE0082004B0BDE8F081216919B1A6
:1016400027710820884700E025714046FFF7AAF976
:10165000A070216939B1032801D0042803D1307862
:1016600008B1607990B1A571009502950195039537
:101670008DF800508DF808501C48A17818300529C5
:1016800025D2DFE801F03108111D2100E571A771B5
:1016900007208847E8E7677001908DF80070ADF883
:1016A0000C50ADF80A5014E00221617001908DF8E1
:1016B0000070B089ADF80C003089ADF80A0008E080
:1016C000684605F003FE02E0684605F023FEA078B8
:1016D00020B1E178684673DF0028ACD1216909B1F7
:1016E000607888470020A6E76570F7E7F8260020B5
:1016F000542D002038B50D46040019D0C5B1302155
:10170000FDF715FE4FF6FF70A085012020708DF8C3
:1017100002004FF4B850ADF80000A21C6946012049
:10172000A0DF002803D129462046FFF7A8F938BDDD
:101730000E2038BD002811D000290FD00A88102AA9
:1017400007D0112A07D0502A09D0512A06D104F017
:10175000F9BA898801E04FF6FF718185704704F07E
:10176000F7BD73B586B0040034D0217C9DF81C20F1
:10177000002091422CD0002501260095ADF8006094
:1017800007A8ADF802500190E188608A6A46A4DF9C
:1017900000281DD19DF81C002074608AA0F57F41AF
:1017A000FF3919D0207DB8B10295039504950595B0
:1017B000E088ADF80800BDF80200ADF80C00019813
:1017C0008DF80A60CDF810D00590608A02A9A6DFD6
:1017D00008B070BD0E20FBE70820F9E738B50D46CC
:1017E00004001BD0D5B1286820604FF6FF706082DE
:1017F00028792075FF20207401208DF8020041F621
:101800000F00ADF80000221D69460120A0DF00286E
:1018100003D129462046FFF7ADFC38BD0E2038BD68
:1018200038B5002823D0002921D00A88102A19D0E1
:10183000112A19D0502A1AD10446007D002816D04A
:1018400031F8060F6289904211D1488902280ED1E1
:10185000206800280BD001F10C0000F063FA38B1C9
:10186000002006E0898801E04FF6FF71418238BD13
:1018700001208DF80000226869462046904738BD57
:1018800038B50D46040019D0C5B11621FDF74FFD3E
:101890004FF6FF70A082012020708DF802004FF6F5
:1018A000F070ADF80000A21C69460120A0DF0028FE
:1018B00003D12946204600F0F7FE38BD0E2038BD82
:1018C00000280FD000290DD00A88502A18D00ADC31
:1018D000102A12D0112A05D14FF6FF7181820949D1
:1018E0000020C8707047512AFCD0572AFAD1064A06
:1018F0001278092AF6D104F0DFB98988818270470D
:1019000004F0BABA542A00202C36002070B50546DF
:1019100001461C220F48FDF7F1FC0F4C00262670F3
:10192000286830B1016861604068A060201D7ADFDE
:1019300002E00948001D7BDF00280AD14FF6FF7046
:1019400060806670BDE87040044A00210448FFF7DB
:101950002DBA70BD302E002018270020058502000A
:10196000E894020070B51E4C068800231B49E289EA
:10197000102E15D01B4D112E1CD0122E29D0502EFA
:1019800017D130F8061F914213D14189022910D195
:101990000C3000F0C7F988B1BDE8704000F0DABF44
:1019A00084884C800469CC60406908614B70002ACF
:1019B000F2D070BD4FF6FF7048804B702868FFF77B
:1019C00077FA0028F5D0A1690029F2D0BDE870406F
:1019D00008478268CA60C0680861DDE718270020F0
:1019E000302E0020E89402002DE9F04704460388D9
:1019F0003F480122A4B000F1480A102B09D0112B56
:101A000054D01A2B70D1217AB2EB111F53D201237B
:101A100052E0D0E911218A430546011D12A805F0C4
:101A200052FB442212A901A8FDF768FCDFF8C09020
:101A30000026374609F144090DF104080AE000BF09
:101A400008EB46001D2283884946281D009705F0B3
:101A5000FFFA761C0198B042F2D8686CA688C043A1
:101A600005F018FBA0F57F41FF3917D005EB4000CA
:101A70000123868032465146281D05F049FB01238B
:101A800032464946281D05F043FBE07B02280BD077
:101A900000231749A2884C31281D20E024B00420DF
:101AA000BDE8F047FFF74EB90123F2E70023A28813
:101AB0005146001D13E000230D490546A288503110
:101AC000001D05F025FB207A0221B1EB101F01D289
:101AD000012300E000230649A2885431281D24B0C8
:101AE000BDE8F04705F014BB24B0BDE8F087000066
:101AF0004C2E00207CB5054608880C4609309042E3
:101B000001D90C207CBD68466DDF0028FAD1218800
:101B10000820685420881B21401C80B22080295452
:101B20002088401C80B220802844DDF8011001602C
:101B3000BDF8051081802088801D80B220809DF82E
:101B40000010490800D0012129542088401C208021
:101B500000207CBD10B50446FFF746FF2046FFF786
:101B600001FF204600F0EBFA204603F0C3FF2046B9
:101B7000FFF732FD21460F4802F02CFE0D482146AA
:101B80001C30FFF74DFE0B4821469C30FFF798FEB6
:101B900008482146403000F033F8064821466C30B2
:101BA000FFF7C8FD21460348BDE81040343000F07F
:101BB000D5B90000982A002038B50D4604001AD087
:101BC000CDB12C21FDF7B3FB4FF6FF7020850B48FC
:101BD0002060012020714FF4B0518DF80200ADF863
:101BE0000010A21D6946A0DF002803D12946204627
:101BF00001F0E8FC38BD0E2038BD00002D1D0200AC
:101C000030B585B000282AD0002928D00A88102AAB
:101C100027D00024112A27D0502A37D0512A1ED18C
:101C200011F8062F012A1AD1ADF804408DF80020D2
:101C30008DF8062004AA0392ADF808400222ADF800
:101C40000A204988028C914209D1134909880A0A5D
:101C50008DF810208DF81110008D6946A8DF05B0B1
:101C600030BD89880185FAE70C4D4FF6FF7101857B
:101C70002C70AC7001F0D0FD012002F0B5FC6C704E
:101C800005B00020BDE8304002F03ABB05B0BDE829
:101C9000304004F0BBB80000502600209D270020F3
:101CA00086B00021009101910291039116490A88A2
:101CB0001649130A0B704A70154A1288130A8B7062
:101CC000CA70144A12780A71134A1288130A4B71A7
:101CD0008A71124A1288130ACB710A72104A12884A
:101CE000130A4B728A720B22ADF81020838904AA62
:101CF000CDE90221ADF8003001238DF80230808A51
:101D00006946A6DF06B070476C2600202C360020FE
:101D10003E260020332600204626002044260020B0
:101D200048260020007800F0010070472DE9F041BE
:101D30000878DFF8D0800126334F344C0025B0B14D
:101D4000012826D041460228897B2AD003283DD08D
:101D5000042846D0052837D16078002834D1A570F2
:101D600001F05AFDBDE8F041012002F03DBCA57034
:101D700001F052FD98F80E00002825D126706078F9
:101D8000002821D105F020FC21480580FEF722FF24
:101D900019E02570012002F027FCBDE8F041FEF7B4
:101DA00029BFA57000290FD16670002002F01CFC2D
:101DB000207905F063FB002001F0F2FD012002F024
:101DC0009FFA01F02DFD3D70BDE8F08165700020A7
:101DD00002F096FA012002F007FCBDE8F04101F0A4
:101DE0001BBD0029F0D160780028EDD102F0FCFB8A
:101DF00001F05AFF4FF47A6002F01CFF01F010FD71
:101E0000A670E1E7542A0020352600209D270020F7
:101E10005A26002030B50446008D8DB0A0F57F42D3
:101E2000FF3A24D0002513480095019502950395AB
:101E300042780AB1208A04E0807808B1208B00E063
:101E40002089ADF8000004AA204601F09FFCADF8FF
:101E50002C0004A803900BA8029001208DF802002A
:101E6000ADF80450208D6946A6DF0DB030BD0820C6
:101E7000FBE700009D2700200A7802704978417036
:101E80000220704730B5274885B0002300690490D0
:101E90004FF49A72244904A805F05EFB08B1FEF7DE
:101EA00051FF00246846009405F03AFB08B1FEF7A4
:101EB00049FF012501948DF804508DF805400294E6
:101EC00003948DF8064001A94020009A69DF08B10B
:101ED000FEF738FF01948DF80450F720ADF80600A6
:101EE0000294039401A92320009A69DF01940294CB
:101EF00003948DF8044001A90120009A69DF08B11C
:101F0000FEF720FF684605F01FFB08B1FEF71AFF39
:101F1000064805F00FFB002801D0FEF713FF05B0BF
:101F200030BD00006486020020280020551B0200FE
:101F300038B5044601208DF8020041F604000D4634
:101F4000ADF80000224669460120A0DF002803D139
:101F50002946204605F036FF38BD000070B40A88D7
:101F600087B0102A1DD0194C502A23781CD0512A32
:101F700014D18979012911D10022ADF80C20ADF8D6
:101F800010208DF808108DF80E10CDF814D0ADF893
:101F900012108DF80030408902A9A8DF07B070BC8C
:101FA000704789884181F9E731F8065F4688B54274
:101FB00000D10A7B072AF1D29A42EFD00449895610
:101FC000227007B070BC00F005B800009C2700200C
:101FD0006895020013B5044682B0002001210090EC
:101FE000ADF80010ADF8020003A801909DF90C00B7
:101FF00077DF618860896A46A4DF04B010BD000005
:1020000070B54FF0FF3100203BDF002835D1B12102
:102010003ADF002831D111DF00282ED14FF01020F7
:10202000406913DF002828D101214FF0E0208A0504
:10203000C0F88022D0F800315FF0000001FA00F211
:102040001A420AD042B202F01F0501FA05F4520901
:10205000920002F1E022C2F88041401C2028EDD31A
:10206000BFF34F8F05480168054A01F4E061114351
:102070000160BFF34F8F00BFFDE770BD0CED00E0C6
:102080000400FA050249085C002103F06FBC00005F
:10209000E29402000249085C012103F067BC0000E1
:1020A000E29402007CB50024084E25460122305DF2
:1020B000009500231146019503F0CAFB641C022C15
:1020C000F4D3BDE87C4000F003B80000E2940200C5
:1020D00010B500242046FFF7D5FF641C022CF9D36D
:1020E00010BD000010B50246064B4FF0FF30002136
:1020F0005C5C944201D1084610BD491C0229F7D30B
:1021000010BD0000E494020010B500210222084630
:1021100000F07CF808B1072810D10422002101202A
:1021200000F074F808B1072808D10322022100202A
:1021300000F06CF808B1072800D1002010BD7047EE
:102140002DE9F04788468246FFF7CCFF0446022877
:1021500039D2244F22483E1F4FF0010907F10C05E8
:10216000B8F1000F31D0B8F1010F15D0B8F1020F5E
:1021700029D104EB440028444478002C23D0F06893
:10218000002820D0184981F80090FEF767FD20460E
:10219000F168BDE8F047084704EB44010D44697855
:1021A00079B14FF0A0424FF08061C2F80C150D4A92
:1021B0004FF4C031521E4068FEF736FE08B986F86B
:1021C00003A0A8783855BDE8F0874068FEF770FE98
:1021D00004EB44012944385D8C78A042CDD0F2E76D
:1021E000189502003C270020542A0020FEF74EBD1F
:1021F00004494A78002A03D10122CA7102490873AE
:1022000070470000542A00203026002070B50023BB
:10221000022810D20D4D00EB4004012A02D1012901
:102220000CD00022094E00EB4000304451B101298E
:1022300006D0022908D00723184670BD801CC2B200
:102240002A55F9E78270F7E74270F5E74827002042
:1022500070B5234D04460020297AC9070BD0FFF73B
:1022600037FF20480068FEF723FE1F4900260E7244
:10227000887D08B1002070BD14B1022C2AD126E05F
:10228000887A08B106240BE0C87A08B1022402E07B
:10229000487A10B10124002003E0C87C20B1072453
:1022A0000120FFF7F7FE10E0487B08B10424F2E7B5
:1022B000087B20B103240020FFF7ECFEF0E7887BC9
:1022C00008B10524ECE701200872AE7002E0887ABC
:1022D00000B106242046BDE8704000F039B8000087
:1022E0003827002018950200542A002070B50546B2
:1022F00013480024C0E90251A80712D540F26662D3
:1023000002211048FEF7D4FC04000AD1FEF7BEFCFF
:10231000040006D10B480C4A0021001FFEF746FDC1
:102320000446E80701D0FFF7BDFE34B90548074A67
:1023300000210838FEF73AFD0446204670BD000033
:102340003827002020950200812402001D3302005E
:102350002DE9F05F474C054600266078374610B1FE
:102360006770FFF7B5FE4448807D10B10020BDE8DE
:10237000F09F0120DFF804814FF4FA7942F2107ADD
:102380004FF47A7B082D50D2DFE805F04F0420513E
:10239000612E6565A17809B3A7700020FFF772FE72
:1023A00040F6B830410CC0034FF4FA72801841F186
:1023B00000015A460023FCF73FFF01460022D8F8EF
:1023C0000000FEF731FD064625702EE0A17829B108
:1023D000A7700020FFF756FE5046E3E7A0700020EC
:1023E000FFF758FE4846DDE7A17831B1A77001201C
:1023F000FFF748FE4FF4965004E0A0700120FFF76D
:1024000049FEC820410CC0034FF4FA7280182570B1
:1024100041F100015A460023FCF70EFF014600225D
:10242000D8F80000FEF700FD064630469FE7A17889
:1024300041B1A7700020FFF725FE0120FFF722FE23
:102440005846DFE7A0700020FFF724FE0CE00020D4
:10245000FFF720FEB8E7A17829B1A7700120FFF7A8
:1024600011FE5046CEE7A0700120FFF713FE48464C
:10247000C8E7000038270020542A002018950200E1
:1024800000780221FFF75CBE7CB518490320FFF7F6
:102490002DFF00210846FFF737FE002469461E2065
:1024A000009402F0B5FD6946042002F0B1FD104D24
:1024B00000210E2003F002FA00211F2003F0FEF994
:1024C0000021032003F0FAF968690190094A01A983
:1024D0000E2002F0FFFC00210E2002F0A9FC0648AD
:1024E0000068400701D5054844707CBDF121020019
:1024F000648602002938020000040040542A0020AB
:1025000030B55A482DED048B83B0007820B158487F
:1025100001690091808A04E0564850F85B1F0091E1
:102520008088ADF804009DF801009DF800104FF47C
:10253000004500EB012081B2A94202D3C1F10100A4
:1025400081B24E4A4C481278845C04FB01F0FDF7DE
:102550002FF89FED4B8B53EC182BFCF7B7FF41EC9A
:10256000100B53EC102BFCF7B1FF41EC190B9DF84D
:1025700003009DF8021000EB012081B2A94202D3B2
:10258000C1F1010081B204FB01F0FDF711F853EC39
:10259000182BFCF79BFF41EC100B53EC102BFCF7B6
:1025A00095FF53EC192BFCF7EAFE41EC190B9DF853
:1025B00005009DF8041000EB012081B2A94202D36E
:1025C000C1F1010081B204FB01F0FCF7F1FF53EC13
:1025D000182BFCF77BFF41EC100B53EC102BFCF796
:1025E00075FF53EC192BFCF7CAFE41EC180B0024C5
:1025F0006D4625A12A5D0020FDF783FB641CE4B233
:10260000062CF6D322A10020FDF77BFB9FED210BCA
:1026100051EC180B53EC102BFCF7F0FF1AD0B0EE76
:10262000480AF0EE680AFDF7BEFF9FED1C1B51EC57
:10263000100B53EC112BFCF749FFFCF7C6FF81B2DE
:10264000184802880C482C38914201D9417929B1A7
:102650000021417103B0BDEC048B30BDC18B491C1E
:10266000C183018C491C01840121F2E79E270020CF
:10267000362C0020202A00205C260020A3270020E2
:10268000000000000000003F2025303278000000EC
:102690000D0A000000000000000000000000000023
:1026A00000408F40AE27002030B58FB005461C217A
:1026B0006846FCF73CFE9DF80000002420F0100066
:1026C00040F008008DF800000194039404940594F0
:1026D000069428788DF836004FF6F670ADF8340081
:1026E00007949DF81C00142120F0FF008DF81C00B9
:1026F0009DF81D0020F00F00401C20F0F00010306D
:102700008DF81D009DF81E0020F00600801C20F0B2
:10271000100040F009008DF81E0008A8FCF707FE25
:102720000DA8089007A809906420ADF82840ADF8DE
:102730002A40ADF82C0068882B1D08AA6946A2DF44
:102740009DF8000005F10C0320F00A0040F0100095
:102750008DF800009DF81D0008AA20F00F00401C15
:1027600020F0F00010308DF81D004FF6F770ADF836
:10277000340068886946A2DF0FB0002030BD000039
:1027800005494FF0FF32082841F8202002D30844C1
:1027900080F8482070470000182F0020F0B54FF057
:1027A000FF3512B10023082601E008230C260C4C4B
:1027B00005E000BF54F823707F1C04D05B1CB342BB
:1027C000F8D32846F0BD26185DB286F8305044F89C
:1027D0002310002AF5D1E11881F84800F1E7000044
:1027E000182F00200249084490F93000704700007B
:1027F000182F002070B5084C050009D0103421684E
:10280000002907D008682060496828468847F6E70D
:102810000834F4E770BD0000042F00202DE9F05FBC
:1028200026484168F1B3DFF898B00E688146DBF8BE
:10283000004087688078E11B21F07F45ED1CB0B92E
:10284000DFF880804FF48030C8F84403C8F80403F0
:102850001120FDF7C3F81120FDF7D6F84FF0010A5B
:10286000C8F800A02F2002F09FF989F802A0B54215
:1028700000D23546124BE8193C3320F07F401860F7
:10288000DBF800105A46091B21F07F41001B20F0A5
:102890007F40C91C81420FD9106818602F2002F0B8
:1028A00083F900E004E0BDE8F05F1120FDF7C2B855
:1028B000BDE8F05F04F02CBABDE8F09F642700206B
:1028C00004150140001001402DE9F041178806462B
:1028D000B81D14460D46984202D90C20BDE8F0817F
:1028E0003188072206290AD34FF4486C4FF6FF734C
:1028F000614501D9994202D17088062801D210465B
:10290000ECE7604501D99842F9D1994203D0984249
:1029100001D08142F3D80520E85520881221401CBF
:1029200080B2208029542088401C80B22080411928
:10293000308805F0E2FD2188084480B220804119EA
:10294000708805F0DAFD2188084420800020C5E762
:10295000FEF7F8B9F8B5134800F0C6FC114D002693
:10296000114C0C3D30B16169B9B101208DF8000006
:10297000684611E0287820B1616971B18DF8006076
:10298000F6E7687858B1A168084800220068FEF7A9
:102990004BFA10B1A16901B188472E70F8BD61688A
:1029A000F2E7000024270020302E0020E8940200E7
:1029B000020900F00F00120302EB00200A0901F0E7
:1029C0000F0101EB021110B5084484B2224603A1A5
:1029D0000020FDF796F9204610BD00007265737562
:1029E0006C743D25640D0A002DE9F0410026012597
:1029F000144C22E06068226900EBC607387805FABB
:102A000000F1114217D08A43226102F0BFFA024658
:102A10003878E36805FA00F1194002FA00F39942A8
:102A200009D17978012901D0012100E0002151402C
:102A30007A6802B19047761CF6B220788642D9D3E4
:102A4000BDE8F0815027002010B5174C0020617AB6
:102A500069B1607274DF207B08B1032003E0607B02
:102A6000002820D00420BDE81040FFF7F1BBE17A38
:102A7000002918D0E072207B08B1032002E0607BBF
:102A800010B10420FFF7E4FB08481321808B76DFA8
:102A90000020FFF7FFFA642001F05FFFBDE810405F
:102AA0000020FFF7EFBA10BD542A00203026002086
:102AB0000E4910B50A784C780023A24212D0521C5D
:102AC000D2B20A70022A00D10B70084A0B780C327D
:102AD00052F8232002608868104420F07F4088600C
:102AE000012010BD0360002010BD000064270020FD
:102AF000826883881A4003689A5C0A708168491C5E
:102B000081607047C26883881A4003689954C1681D
:102B1000491CC160704700000EB59DF8080020F008
:102B20000F00401C20F0F00010308DF808000F4816
:102B300000F14401827802A87CDF08B1FEF702F9B7
:102B40000020009001900821ADF80400ADF80010BD
:102B50004FF4C8700C21ADF80600ADF802106846BD
:102B60007ADF002801D0FEF7EDF80EBD30260020F8
:102B7000704700001FB51649164801F015FE08B150
:102B8000FEF7E0F86421134801F0E0FD08B1FEF71C
:102B9000D9F868224FF6FF710E4801F0E3FD08B145
:102BA000FEF7D0F801248DF800406946022067DF67
:102BB00008B1FEF7C7F80020029003908DF8084096
:102BC00002A9022067DF002801D0FEF7BBF81FBD75
:102BD000712B0200982A00202DE9F04FADF5017D00
:102BE00006460120CD4F00258DF800008DF80150DC
:102BF00038680C469046C17D7868AA466B460078D6
:102C0000022205F05FF800286FD1C82001F0AFFE66
:102C10003868A9464A46C17C7868007805F03EF8D5
:102C20000028F1D138684A4641797868007805F083
:102C300035F80028E8D138684A46C17D78680078C0
:102C400005F02CF80028DFD138684A46017F786803
:102C5000007805F023F80028D6D138684A46017973
:102C60007868007805F01AF80028CDD138680C2271
:102C700001797868007805F011F80028C4D10F2098
:102C800001F075FE39687868A7F1300BB9469BF8FA
:102C900001208978007805F001F80028B4D1D9F82E
:102CA0000010D9F804005F469BF8002049780078AE
:102CB00004F0F4FF0028A7D1B8F1000F03D0B878D2
:102CC00040F0E00200E0BA78D9F80010D9F804002A
:102CD0008979007804F0E2FF002806D1B8F1000FEE
:102CE00004D0F87840F0E00201E07FE0FA78D9F80B
:102CF0000010D9F80400C846C979007804F0CEFF66
:102D0000002873D1C82001F032FED8F80010D8F89E
:102D1000040040220979007804F0C0FF002865D142
:102D2000D8F80010D8F8040078224979007804F027
:102D3000B5FF00285AD1C6F808A0C6F804A0C6F806
:102D400000A0C4F808A0C4F804A0C4F800A0C346BA
:102D5000BA4664E00A2001F00AFEDBF80010DBF856
:102D600004000223897B00786A4604F015FEE8BB64
:102D7000BDF800000C2140BAB0FBF1F0C7B298F8E2
:102D80000400401BB84200DAC7B207EB47008006D8
:102D9000030EDBF80010DBF804006A46C97B0078FC
:102DA00004F0FAFD10BB0021084635E00DEB0102EE
:102DB000D4F80080B2F802C013889CFA9CFC5BBA7D
:102DC0000FFA8CF91BB2B2F804C043442360636865
:102DD0009CFA9CFC4B446360A3680FFA8CFC634430
:102DE000A360D3885BBA0FFA83FC00E026E0138966
:102DF000D6F800805289C444C6F800C05BBAD6F841
:102E000004C01BB26344736052BAB36812B2401C70
:102E10001A44C0B20C31B260B842C7D33D449AF8EC
:102E20000400D046854295DBDBF80010DBF8040097
:102E300000224979007804F031FF28B14FF0FF30CB
:102E40000DF5017DBDE8F08F30685746C1170904C4
:102E500041EA104100040023DAF80C20FCF71DFAC7
:102E6000EB172A469946FCF718FA30607068D7F8D5
:102E70000C80C117090441EA1041000442460023B6
:102E8000FCF70BFA2A464B46FCF707FA7060B0686D
:102E90004246C117090441EA104100040023FCF72F
:102EA000FCF92A464B46FCF7F8F9B060206800238D
:102EB000C117090441EA104100043A69FCF7EDF931
:102EC0002A464B46FCF7E9F9206060683E69C11765
:102ED000090441EA1041000432460023FCF7DDF901
:102EE0002A464B46FCF7D9F96060A0683246C11704
:102EF000090441EA104100040023FCF7CEF92A46F8
:102F00004B46FCF7CAF9A060002802DDA0F580302E
:102F100001E000F58030A060002091E7B826002095
:102F20002DE9F041124E07460125BD403068FDF7FE
:102F3000BFFF00280DD10F4C2069284207D1384629
:102F400002F024F80028E06805D0284304E0A843F4
:102F50002061BDE8F081A843E0602069284320613A
:102F6000A1683068BDE8F0410022FDF75DBF0000B8
:102F700030950200502700202DE9F04305465B48BC
:102F800000248DB040680E462746007803230BAA24
:102F9000214604F001FD18B107200DB0BDE8F08313
:102FA00000200BAA0DF1100CDFED510A4F4B303B06
:102FB000115CD1B1DFF83C8108EB410131F8021C12
:102FC00000EE101A0CEB8001B8EE400A81ED000A09
:102FD00020EE200A81ED000A93ED031AB8EE411AA3
:102FE000C0EE011AC1ED001A06E09FED430A0CEB9A
:102FF0008001012781ED000A401C0328D8DB01AACB
:10300000012107B393ED060A5FF0000020EE201ABD
:1030100056F8207055F820C0A7EB0C0700EE107A88
:1030200002EB8007B8EEC00A87ED000AB4EEC10AD1
:10303000F1EE10FA02D201FA00F73C43401C0328DB
:10304000E6DB84B34AE093ED071A00200DF1200976
:1030500056F8207055F82080A7EB080700EE107A8C
:1030600002EB8007F8EEC01AC7ED001A0CEB8007E0
:1030700097ED002A09EB800781EE820A87ED000AAE
:10308000B5EEC00AF1EE10FA01DCB1EE400AB4EE82
:10309000C10AF1EE10FA02D201FA00F73C43401CDB
:1030A0000328D5DBCDE7FFE793ED050A5FF00000CD
:1030B00020EE200A55F82020002A00DC524200EEC3
:1030C000902AF8EEE00AF4EEC00AF1EE10FA02DD02
:1030D00001FA00F21443401C0328EBDB224607A14F
:1030E0000020FCF70EFE204657E70000B82600201F
:1030F00000008047C0860200000000004759524F80
:1031000020726573756C743D25780D0A000000000F
:103110004FF0102040694FF0805211695269431CF2
:1031200001D102FB01F00549421EA0F50050C1E9A2
:103130000D02000B086303F0EDBC000030260020F8
:10314000F8B51C4C2078002832D02069002658B1F0
:103150000025607800282BD1684648DF052805D077
:1031600030B1FDF7EFFD0AE00125F2E7012606E0A8
:10317000009801F015FEA16809B1009888479DB933
:103180006078002814D16088ADF800006946E068D6
:1031900061DF052803D020B1FDF7D4FD04E001254F
:1031A00002E0D4E903018847002ED2D0002DE6D0FA
:1031B000F8BD00008827002070B50E46044600794F
:1031C00018494FF4A27501EB4010017F2068A1B1AE
:1031D0004FF4887102F07AFC4FF49071206802F08D
:1031E00075FC4FF49271206802F070FC294620684B
:1031F00002F06CFC0C49206809E04FF48E7102F07B
:1032000054FC2946206802F050FC08492068C0F8A8
:103210000413206801F0E5FD3146BDE8704001F07F
:10322000C4BD0000EC2F002010030200800002004B
:103230007FB50C46054691F8211094F82000CDE9A1
:10324000000104F12602D11E2846E36904F039FC8E
:10325000002823D194F8230008BB207B022801D04A
:1032600003281CD12269E169914218D16269E261A7
:10327000E37B84F82030217E0328C1F3401184F8D9
:10328000211006D004B029462046BDE8704004F065
:10329000A1BB00912946204604F098FC7FBD04F1B3
:1032A0000C0001AB07C883E8070094F82300002155
:1032B00068B1D5F8C404C5F8C404820701D501205B
:1032C00002E0400705D502208DF8000001E08DF8EE
:1032D000001084F82410207E4007DFD4D4E90021B8
:1032E000684690477FBD0000054940880A889042A3
:1032F00004D34988884201D80120704700207047D4
:103300001C2700200268134602E08A4204D012689B
:10331000002AFAD10B600160704700000348017A6F
:10332000C90702D00078FFF713B87047382700208C
:10333000F721018064214180002101714171FB214D
:1033400081716821C17170472DE9F047394E00271E
:1033500080463D46DFF8E090D6F804A057E003D061
:103360000446D0F81C8035E099F8002002EB4201B9
:10337000521CD2B289F8002009EBC10199F8023041
:10338000091D9A4201D189F8005048680A7804461C
:10339000012A12D0022A02D0032A3BD108E004F00D
:1033A000D5F900B10127257434E00574C06900E047
:1033B00070680028F9D170602CE0207C50BB8868D0
:1033C0006060C868A0600869E0604869A061F07842
:1033D00000B165606268B168184B501A20F07F40F8
:1033E000984202D2A168084406E0881AA16820F039
:1033F0007F40814202D9081A206000E025606560A4
:103400000120A56020742046E56104F081F9B8F13F
:103410000000A4D199F8001099F801008142A3D1CD
:1034200017B97168514502D00120BDE8F08700202E
:10343000FBE70000642700206C300020FFFF7F00C6
:103440008AB0FDF7C7FC08B1FDF77CFC3A4A0121C0
:103450003A48FDF7ABFC08B1FDF774FC3748384A31
:103460000121001DFDF7A2FC08B1FDF76BFC3348FC
:10347000344A01210830FDF799FC08B1FDF762FCE0
:1034800001F01EFC08B1FDF75DFC002001F03CFCE2
:1034900004F0CAF804F03EFAFEF7F6FFFFF738FE34
:1034A0002649182214316846FBF728FF264826498A
:1034B000069080208031CDE9070109900723234A37
:1034C00006A96846FDF71EFD08B1FDF73BFCFEF7B7
:1034D000D9FCFFF721FBFFF74DFBFDF78FFA03F057
:1034E00079FE1C216846FBF722FF00204FF42031B3
:1034F000CDE900014FF47021029103218DF80C10E9
:10350000ADF80E008DF81000114805901148069096
:103510006846FEF7FBF908B1FDF714FC03F000FE66
:10352000FDF7BAFD0CA10020FCF7DEFB03F04AFC1E
:1035300002F06EFFFCE70000110C0200688602003A
:10354000A90B02001D0C020054290020497E020034
:10355000395C020051290200496E69740D0A0000AD
:1035600070B5144682880E4605462088111D014418
:10357000921C994201D8FE2A01D90C2070BD521C20
:1035800032542088FF21401C80B220803154208892
:10359000401C80B220808119288804F0AEFF218869
:1035A000084480B22080AA8842B1A96841B1304461
:1035B000FBF7A4FE2088A98808442080002070BD65
:1035C000072070BD30B58FB004461C216846FBF75C
:1035D000AEFE9DF80000002520F0020040F0100033
:1035E0008DF80000019503950495059506952079C1
:1035F0008DF8360041F20160ADF8340007959DF872
:103600001C00142120F0FF008DF81C009DF81D0007
:1036100020F00F00401C20F0F00010308DF81D004D
:103620009DF81E0020F00600801C20F0180040F0DD
:1036300001008DF81E0008A8FBF779FE0DA8089080
:1036400007A80990ADF828501220ADF82A50ADF81F
:103650002C00E08804F1080308AA6946A2DF1C20B8
:10366000ADF82C0041F20260ADF83400E08804F1BE
:10367000100308AA6946A2DF0620ADF82C0041F22B
:103680000760ADF83400E08804F1180308AA694621
:10369000A2DF9DF81D0004F1200320F0FF008DF84B
:1036A0001D009DF81C0008AA20F00F00401C20F00F
:1036B000F00010308DF81C009DF80000694620F0E5
:1036C000100040F002008DF800009DF81E0040F050
:1036D00008008DF81E000220ADF82C0041F20C60AD
:1036E000ADF83400E088A2DF0FB0002030BD00004C
:1036F00070B51D481D4D1E4E007848B11D4C1E4929
:10370000701CA27BFBF7FAFDA07B401CC4B215E045
:103710001A48174950F85B2F41F8012F82888A8098
:103720001349D0F8062041F8072F40898880FEF71A
:10373000E7FE0F48E98B0F24A0F80D10601E3070D3
:10374000287970B1002506E0725D0DA10020FCF71C
:10375000D8FA6D1CEDB2A542F6D30BA10020FCF700
:10376000C3FA204670BD00009E27002030260020AE
:103770002C360020042D0020362C0020202A00208A
:1037800025303278200000000D0A000070B51B4D76
:103790001446687838B11A4E20461A49B27BFBF7B6
:1037A000ADFDB67B17E0A878002851F8030F206024
:1037B0008888A08001D006260DE0D1F80600C4F864
:1037C000060048896081FEF79BFE0F480088010AC9
:1037D000217360730E26E87870B1002506E0625D03
:1037E0000AA10020FCF78DFA6D1CEDB2B542F6D3AC
:1037F00008A10020FCF778FA304670BD9D27002014
:10380000042D0020362C00204E2600202530327852
:10381000200000000D0A000000210E2001F008BB6E
:1038200001210E2001F004BB01490120887170477D
:10383000542A002070B52E4A064686B08320D060F8
:103840004FF4804010610D4600201070022151702D
:103850009070D070C8201071B3EE040A82ED050A92
:103860009FED240ADFED240A82ED060AB6EE000A77
:1038700082ED070AC2ED080ADFED200A20A1C2EDA1
:10388000090A82ED0A0A82ED0B0A0020FCF72CFAE5
:103890000024002229463046FFF79EF910B1641C2F
:1038A000022CF6DB022C20D00024012203A968465A
:1038B000FFF792F910B1641C022CF6DB022C14D035
:1038C00003A92846FCF7D4FEC4B269463046FFF788
:1038D00053FB10F0FF0F4FF0000000D00120002C30
:1038E00001D040F0020006B070BD0020FBE70000F0
:1038F00088260020000070426666663ECDCC2C3FD4
:103900006D70755F72756E5F363530305F73656CE4
:10391000665F746573740D0A0000000070B5104C8A
:1039200020F001010025207E08B1002070BDA07AA2
:1039300068B10840267C2074884200D0012541B13E
:10394000012003F071FD00F0A1FB38B126740120C5
:1039500070BD207D00B1012003F066FD284670BDDA
:10396000B826002008B560B120208DF8000028207E
:103970008DF8010030208DF8020038208DF803000A
:1039800004E0A32204216846FBF7CAFC6A4604212E
:1039900040F69E2000F04CFE00F078FB08BD0000D1
:1039A0003EB570480078012805D004206E4909789A
:1039B000012902D003E01020F8E740F020006B4915
:1039C0000978012906D040F0800469480078012870
:1039D00003D004E040F48074F7E744F04004022090
:1039E0008DF80000CA208DF80100E3208DF8020058
:1039F00009208DF803006A460421682000F018FEB3
:103A0000A3208DF80000610609D5C0218DF80110B2
:103A1000C8218DF80210C2218DF8031005E08DF841
:103A200001008DF802008DF8030014F4C07F09D066
:103A3000C4218DF80410CC218DF80510C6218DF815
:103A4000061005E08DF804008DF805008DF80600DD
:103A50008DF808008DF807008DF809006A460A21E4
:103A600040F6A72000F0E4FDA0074FF0D80503D0F2
:103A700020208DF8000001E08DF800506A460121F9
:103A800040F6B62000F0D4FDA00601D5012000E0EC
:103A9000002000F071F814F4C07F1ED0E0050AD5B4
:103AA000B2208DF800008B208DF80100B6208DF833
:103AB00002009B2009E0B0208DF8000080208DF8E6
:103AC0000100B4208DF8020090208DF803006A46B2
:103AD000042140F6A22000F0ABFDE00707D18DF8ED
:103AE00000506A4601214FF40B6000F0A1FDA007D1
:103AF00003D5D9208DF8000001E08DF800506A460A
:103B0000012140F23D7000F093FD600701D50120D6
:103B100000E0002000F04EF8E00601D5012000E0B2
:103B20000020FFF71FFF134D44F00800688100F0EC
:103B3000ADFA0020A873600601D50620A87314F41E
:103B4000C07F02D0A87B801DA87314F0140F02D090
:103B5000A87B1030A873A00702D0A87B001DA87313
:103B600000203EBDA8270020A9270020AA2700206A
:103B7000AB270020042D00200EB54FF4976310B141
:103B800006A107C901E008A207CA8DE807006A4636
:103B90000921184600F04CFD0EBD0000B8AAB38DF7
:103BA000B4980D355D000000B8AAAAAAB088C3C5B4
:103BB000C700000008B560B1C0208DF80000C22029
:103BC0008DF80100C4208DF80200C6208DF8030096
:103BD00004E08B2204216846FBF7A2FB6A4604211D
:103BE00040F6982000F024FD00F050FA08BD0000D7
:103BF000C8234FF48062024940F6F63000F090B9D5
:103C0000EC88020030B51BA385B00ECB8DE80E000A
:103C10001B4931F810401BA122460020FCF771F827
:103C2000C82C00D9C824C820B0FBF4F0401E85B2CF
:103C30002A4617A10020FCF764F8280A8DF80C002A
:103C40008DF80D5003AA022140F2162000F0F0FC7E
:103C500010B1022005B030BD6A460C2140F6C120EB
:103C600000F0E6FC08B10120F4E70E488481002052
:103C7000F0E70000FEF2ABC4AAF1DFDFBBAFDFDF8D
:103C8000E4260020726174653D2025780D0A00004D
:103C900073616D706C696E675F7261746520257801
:103CA0000D0A0000042D002010B51F4C082007222B
:103CB000A0722068017E6068007803F0EFFF80BB8F
:103CC00020680922017A6068007803F0E7FF08B1F4
:103CD000022010BD20684022C17C6068007803F09B
:103CE000DDFF08B1032010BD2068C022817D60681F
:103CF000007803F0D3FF08B1042010BD206806222D
:103D0000417A6068007803F0C9FF08B1052010BD52
:103D100020682022C17D6068007803F0BFFF002882
:103D2000F5D0012010BD0000B826002070B5154B5D
:103D30000546987A000701D4092070BD18682A4604
:103D4000417C58680623007803F026FE08B1032062
:103D500070BD0DA10020FBF7D4FF002413A12A5D44
:103D60000020FBF7CEFF641CA4B2062CF6D311A1F1
:103D70000020FBF7C6FF10A10020FBF7C2FF0020C8
:103D800070BD0000B82600206D70755F73656E739E
:103D90006F725F6765745F616363656C5F726567AF
:103DA0002073746172740D0A0000000025303278AF
:103DB000202000000D0A00006D70755F73656E7342
:103DC0006F725F6765745F616363656C5F7265677F
:103DD00020456E640D0A00000246094810B5817A3C
:103DE00011F0700F0AD0016840680623097C007842
:103DF00003F0D2FD002800D0032010BD012010BD2B
:103E0000B826002070B53C4D3C4C80222A702068BA
:103E1000C17D6068007803F041FF642000F0A7FDD9
:103E200020682A4601786068007803F097FD2A78B8
:103E300033A10020FBF765FF2878982801D00120E6
:103E400070BDFF20A07220726072E0724FF6FF71A9
:103E5000E1812074A074012020730020A0752749FF
:103E6000E075607530392075C8640865486520764E
:103E70006076608326480088C0F387022A70206835
:103E8000817A6068007803F009FF20682A78C17A97
:103E90006068007803F002FF20682A78017B606880
:103EA000007803F0FBFE1B48007800F05FFA1A4828
:103EB000007800F099F91948007803F0DFFA002043
:103EC000FFF72CFD08B1072070BD002000F0B4F909
:103ED00008B10B2070BD00F065FB0028FAD1FFF798
:103EE00087FE08B10A2070BD002000F009FA012009
:103EF00000F07AFB002070BDB82C0020B82600200E
:103F00005049443D2025303278200D0A2000000021
:103F1000A6270020A4270020A3270020A1270020F7
:103F20002DE9F04786B09A4615460F00064601D0A7
:103F3000002423E0712006B0BDE8F087301B102874
:103F400000DD1020C0B281463A1901469046204655
:103F500000F06EFB0028EED16A464946204600F08C
:103F600071F80028E7D140464A466946FBF7F1F967
:103F700010F0FF00DFD104EB090084B2B442DDD3BE
:103F8000280A0B4C8DF810008DF81150206804ABF6
:103F90000222C17F6068007803F094FE08B17520AA
:103FA000C9E701206076A4F81AA00020C3E700004A
:103FB000B82600202DE9F843214C06461746A07A82
:103FC000884658B1206802236A46817B6068007881
:103FD00003F0E2FC20B10320BDE8F8830220FBE7F8
:103FE000BDF8000045BAB54203D200203870042065
:103FF000F2E760684188B5EB510F10D9216800786D
:104000006A46497D03F0AAFC08B10520E4E79DF863
:104010000000C00603D500F039F80620DCE7206870
:10402000F3B24246C17B6068007803F0B5FC08B18A
:104030000720D1E7B5FBF6F0401E38700020CBE733
:10404000B826002070B516000D4604460ED0200A92
:1040500000F06AFAE0B200F057FA55FA84F10A4823
:1040600042685389994203D93D2070BD012070BD3B
:1040700000682B46817E1078324603F08DFC0028C4
:10408000F5D03F2070BD0000B826002070B5554C1B
:10409000A07A50B1206800252A46C17C606800786B
:1040A00003F0FCFD18B1022070BD012070BD206836
:1040B0002A4641796068007803F0F0FD08B10320DA
:1040C00070BD20682A4601796068007803F0E6FD3B
:1040D00008B1042070BD207E70B320680C220179E5
:1040E0006068007803F0DAFD08B1052070BD322069
:1040F00000F03DFC2068C02201796068007803F080
:10410000CDFD08B1062070BD607C08B1022200E040
:1041100000222068C17C6068007803F0BFFD08B110
:10412000072070BD2068002241796068007803F0A4
:10413000B5FDB0B3082070BD206804220179606825
:10414000007803F0ABFD08B1092070BD322000F00B
:104150000EFC207C30B120680122C17C60680078B0
:1041600003F09CFD2068402201796068007803F02C
:1041700095FD40BB2068082241796068007803F013
:104180008DFD50BBA07C68B9A07AC0070AD0602220
:10419000206801796068007803F080FD20B10A2072
:1041A00070BD1CE04022F3E7322000F0E0FB607CB1
:1041B00008B1012200E000222068C17C606800781C
:1041C00003F06CFD08B10B20EAE72068227C4179FE
:1041D0006068007803F062FD08B10C20E0E7002081
:1041E000DEE70000B826002070B5124DA97AD9B1DB
:1041F00028B1012805D0022805D0032805D00024C5
:1042000004E0082402E0102400E01824687AB0EBEF
:10421000D40F01D1002070BD28682246C17968689A
:10422000007803F03BFD08B1012070BDE008687222
:10423000F0E70000B826002038B5304C0546A07CD9
:10424000A84201D1002038BD2C486A46D0E90010B0
:10425000097900781DB303F081FBC0BB9DF8000015
:1042600020F020028DF80020206801796068007835
:1042700003F014FD58BB032000F079FB02208DF8F9
:104280000000A07D68B3822029E020689DF800200E
:10429000417E6068007803F001FDC0B92BE003F0B7
:1042A0005DFBA0B9A07AC0079DF8000002D040F0E5
:1042B000200001E020F020008DF8000020689DF82B
:1042C000002001796068007803F0E8FC08B1012063
:1042D00038BD032000F04BFBA07D00B180208DF89D
:1042E0000000E07D0028D0D09DF8000040F03000B4
:1042F0008DF80000C9E7A574A4E70000B8260020E7
:1043000010B5184CF0B1607ED0B1002003F08CF8ED
:104310000020FFF791FF14480078FFF773FC206836
:10432000002241796068007803F0B8FC0120207613
:1043300003F07AF8FFF7AAFE322000F018FB0FE036
:10434000012010BD002003F06FF82068227C417925
:104350006068007803F0A2FC00202076FFF796FE4C
:10436000002010BDB8260020A127002070B5124DF6
:10437000A97AD9B128B1012805D0022805D003288F
:1043800005D0002404E0082402E0102400E01824F2
:10439000287AB0EBD40F01D1002070BD28682246E6
:1043A00081796868007803F079FC08B1012070BD5C
:1043B000E0082872F0E70000B826002070B50F4C26
:1043C0000546E07DA84201D1002070BD0DB130222C
:1043D00000E00022A07C08B142F00202A07D08B1FA
:1043E00042F080022068417E6068007803F056FC4D
:1043F00008B1012070BDE575E6E70000B826002091
:104400002DE9F8430546282847D80727274C0026DA
:104410007DB10120FFF7D2FF20208DF800004FF082
:104420000108012D1AD0052D1BD88DF8018005201B
:1044300022E00020FFF7C2FF8DF800608DF80170C8
:1044400020686B460222C17D6068007803F03AFC68
:1044500010B10320BDE8F883267525E08DF80160D2
:10446000E5E7142D04D802208DF801000A2003E0AE
:1044700003208DF80100142000F01AF89DF80100C7
:104480006B4607EB80108DF8010020680222C17D89
:104490006068007803F016FC08B10120DAE7082014
:1044A000A072267384F814800020D3E7B826002079
:1044B00070B5144CA17AC9B1622801D3022508E075
:1044C0002A2801D3032504E0142801D3042500E0A1
:1044D0000525E07AA84201D1002070BD20682A4657
:1044E00081786068007803F0D9FB08B1012070BDC5
:1044F00020682A46017A6068007803F0CFFBE572F5
:10450000EAE70000B82600200246064810B5016818
:104510004068897F007803F0C1FB002800D00120AB
:1045200010BD0000B82600200246064810B50168FC
:104530004068497F007803F0B1FB002800D00120DB
:1045400010BD0000B826002070B5154C0546A07AB5
:1045500040B1207D58B13DB1282D05D8E8B2FFF714
:104560004FFF1BE0012070BD0020FFF749FF4FF413
:104570007A76B6FBF5F0401EC5B220682A4641782F
:104580006068007803F08AFB08B1022070BD6D1CE2
:10459000B6FBF5F0E0814008FFF78AFF002070BD10
:1045A000B826002070B50F4C782601222068C17D06
:1045B0006068007803F072FB002548B90120207381
:1045C00020680022017E6068007803F067FB10B16C
:1045D000A572012070BD0020FFF7F0FEA6722575C0
:1045E000002070BDB826002070B50F4C05460F4A5C
:1045F0002068C17D6068007803F0B0F90B49087845
:1046000015B140F0400001E000F09F000870C2B218
:104610002068C17D6068007803F040FB0A2000F04C
:10462000A6F9002070BD0000B8260020B82C00209C
:1046300070B586B016000C4605460FD0280AFFF765
:1046400073FFE8B2FFF760FF54FA85F21248416841
:104650004B899A4204D9822006B070BD8020FBE7C6
:10466000006801AA807E8DF80400012005E033185F
:1046700013F8013C1354401CC0B2A042F7D909788A
:104680000020641C0090E3B2044800F0CBFE10F060
:10469000FF00E1D08420DFE7B8260020B8860200C2
:1046A000F8B50E46017814460546012901D168780F
:1046B00030B12088821C9A422DD8012902D006E010
:1046C0000720F8BD69780144891C994223D8181A3B
:1046D000801E87B2ADF800702188B01C084469467E
:1046E0007DDF0028EDD12878022805D1BDF8001023
:1046F000B94201D809210AE00821012805D16878CA
:10470000B84202D8ADF8000001E0ADF80070BDF885
:104710000000FE2801D90C20F8BD2288401CB054AE
:104720002088401C80B2208031542088401C20808A
:10473000BDF80010084420800020F8BDC20800F039
:1047400007030120895C98400840704728B1A1F117
:104750006402942A03D3072070470E20704701801B
:10476000002070471CB50B4600210091019168B1F3
:10477000A3F57F41FF3903D0022B09D307201CBDCD
:10478000FB2A00D3FB22027100201CBD0E201CBDA1
:1047900000EBC30069460273ADF80020ADF80220BB
:1047A000002218468FDF1CBD70B5040010D0F72022
:1047B000A16120806080FB202071002504EBC500F2
:1047C000801DFEF7B5FD6D1C022DF7D3002070BDD6
:1047D0000E2070BD2DE9F0438D8891B00446022D66
:1047E0007DD20888DFF850910027222861D006DCAE
:1047F000102809D011280BD0212808D178E03A28B8
:104800000CD0552803D12BE0204601F023FA82E09A
:1048100004EBC500801DFEF78BFD7CE02A4604EB0F
:10482000C206488936F8061F814200D808467080C3
:10483000642800D264207080A06970B1707960B182
:10484000D9E90010CDE90010ADF802207088ADF86C
:104850000400A269204669469047777137715AE093
:104860002E46C88804EBC60808F10608642800D262
:104870006420B8F80010814200D80846A8F8020069
:1048800088F80470B8F800103046ADDF98F80500DD
:1048900030BBA06920B3D9E90210CDE90010ADF812
:1048A0000260B8F80200ADF8040020466946A2692B
:1048B0001CE038226846091DFAF720FDBDF800000B
:1048C000BDF8042004EBC0014A73A26942B1D9E9E2
:1048D0000432CDE90E32ADF83A00487B01E027E022
:1048E00019E08DF83C00A26920460EA9904712E01D
:1048F0000097019731F8040F04EBC0000A79007BA0
:10490000904200D31046ADF80000ADF802000888D0
:10491000002269468FDF04EBC504A07A002807D087
:10492000E18828469EDF002802D1A7720120E072AC
:1049300011B0BDE8F0830000EC94020000F180406B
:104940000068002800D00120704708B500F18040C1
:10495000002101600068009008BD4FF47A7148435F
:1049600000F00AB84FF47A71484300F04BB84FF4A6
:104970007A71484300F08CB800283ED01F49204A85
:10498000096800BF00BF00BF00BF00BF00BF00BF7D
:1049900000BF91422FD000BF00BF00BF00BF00BFCB
:1049A00000BF00BF00BF00BF00BF00BF00BF00BF0F
:1049B00000BF00BF00BF00BF00BF00BF00BF00BFFF
:1049C00000BF00BF00BF00BF00BF00BF00BF00BFEF
:1049D00000BF00BF00BF00BF00BF00BF00BF00BFDF
:1049E00000BF00BF00BF00BF00BF00BF00BF00BFCF
:1049F00000BF00BF00BF401EC3D17047B8270020D2
:104A00000024F40000283ED01F49204A096800BF56
:104A100000BF00BF00BF00BF00BF00BF00BF91428A
:104A20002FD000BF00BF00BF00BF00BF00BF00BF4E
:104A300000BF00BF00BF00BF00BF00BF00BF00BF7E
:104A400000BF00BF00BF00BF00BF00BF00BF00BF6E
:104A500000BF00BF00BF00BF00BF00BF00BF00BF5E
:104A600000BF00BF00BF00BF00BF00BF00BF00BF4E
:104A700000BF00BF00BF00BF00BF00BF00BF00BF3E
:104A800000BF401EC3D17047B82700200024F400A7
:104A900000283ED01F49204A096800BF00BF00BF60
:104AA00000BF00BF00BF00BF00BF91422FD000BFBA
:104AB00000BF00BF00BF00BF00BF00BF00BF00BFFE
:104AC00000BF00BF00BF00BF00BF00BF00BF00BFEE
